:020000040800F2
:10000000F006002089010008911D0008311C00083D
:100010008D1D00087D030008391F00080000000046
:10002000000000000000000000000000C11D0008EA
:10003000F105000800000000951D0008C31D000820
:10004000A3010008A3010008A3010008A301000800
:10005000A3010008A3010008A3010008A3010008F0
:10006000A3010008A3010008A3010008A3010008E0
:10007000A3010008A3010008A3010008A3010008D0
:10008000A3010008A3010008A3010008A3010008C0
:10009000A3010008A3010008A3010008A3010008B0
:1000A000A3010008A3010008A3010008A3010008A0
:1000B000A3010008A3010008A3010008A301000890
:1000C000A3010008A3010008A3010008A301000880
:1000D000A3010008A3010008A3010008A301000870
:1000E000A3010008A3010008A301000800F002F822
:1000F00000F03AF80AA090E8000C82448344AAF188
:100100000107DA4501D100F02FF8AFF2090EBAE885
:100110000F0013F0010F18BFFB1A43F0010318473B
:100120007C2100009C210000103A24BF78C878C1CF
:10013000FAD8520724BF30C830C144BF04680C60ED
:10014000704700000023002400250026103A28BF35
:1001500078C1FBD8520728BF30C148BF0B60704739
:100160001FB51FBD10B510BD00F058F81146FFF7C0
:10017000F7FF01F0FFFE00F076F803B4FFF7F2FF9F
:1001800003BC00F07DF8000009488047094800479B
:10019000FEE7FEE7FEE7FEE7FEE7FEE7FEE7FEE737
:1001A000FEE7FEE704480549054A064B7047000094
:1001B000391E0008ED000008F0000020F0060020C5
:1001C000F0020020F00200204FF0000200B51346BC
:1001D00094469646203922BFA0E80C50A0E80C5067
:1001E000B1F12001BFF4F7AF090728BFA0E80C5018
:1001F00048BF0CC05DF804EB890028BF40F8042B11
:1002000008BF704748BF20F8022B11F0804F18BF7D
:1002100000F8012B7047704770477047754600F033
:100220002BF8AE4605006946534620F00700854688
:1002300018B020B5FFF7B6FFBDE820404FF000062C
:100240004FF000074FF000084FF0000B21F00701BE
:10025000AC46ACE8C009ACE8C009ACE8C009ACE801
:10026000C0098D46704710B50446AFF300802046A4
:10027000BDE81040FFF781BF004870478C000020A8
:1002800001491820ABBEFEE726000200704770B59A
:10029000044600252068806800F0010018B320683B
:1002A000806820F001002168886000F0F3FE0546B8
:1002B00013E000F0EFFE401B02280ED92068806892
:1002C00000F0010048B1A06A40F01000A062E06AAE
:1002D00040F00100E062012070BD2068806800F0FD
:1002E00001000028E5D10020F6E7000038B50446FB
:1002F0000025002000902068806800F0010078BB95
:100300002068806840F00100216888601948006812
:100310001949B0FBF1F0009002E00098401E0090F7
:1003200000980028F9D100F0B5FE054619E000F06C
:10033000B1FE401B022814D92068806800F001003B
:1003400078B9A06A40F01000A062E06A40F00100B5
:10035000E06200BF002084F8240000BF012038BD07
:1003600005E02068806800F001000028DFD0002050
:10037000F5E700001000002040420F0000BFFEE73C
:1003800010B500241948006820F00F0017490860D4
:100390000846006840F00800086004E0601CC4B231
:1003A000012000F0B5FC4FF480711048001F00F0F0
:1003B00063FE08B1C82CF1DBC82C01DB012010BDA5
:1003C000002404E0601CC4B2012000F0A1FC4FF442
:1003D00080710648001F00F04FFE08B9F02CF1DBD9
:1003E000F02C01DB0120EAE70020E8E704080140E7
:1003F0002DE9F05F00F0AEF800F08AF8FFF7C0FFDB
:10040000CC2000F0B3F8BE2000F0B0F800F06EF899
:10041000834600F06BF80446072C08DDE043C4B2C5
:100420006FEA0B0000F0FF0B4FF0000A01E04FF005
:10043000010AA1464FEA09200FFA80F909EB0B00E7
:100440000FFA80F9484601F0F6FD07460022094BF5
:1004500001F008FE054601F0BFFD0FFA80F9BAF180
:10046000000F02D04846BDE8F09FC9F1000000B27D
:10047000F9E700000000E43F10B51B48006820F0D9
:10048000F000194908600846006840F00300086061
:10049000002289151448001F00F0F6FD022000F02C
:1004A00037FC012211021048001F00F0EDFD0E483C
:1004B000006820F00F000C4908600846006840F012
:1004C000080008600C2000F023FC4FF480710648FF
:1004D000001F00F0D1FD08B1012400E0002432200B
:1004E00000F016FC204610BD0408014070B500263F
:1004F000012508E0FFF7C0FF0446E00140EA66007E
:10050000C6B2681CC5B2082DF4DD304670BD0000CF
:1005100010B50F48006820F0F0000D49086008464B
:10052000006840F003000860002289150848001F99
:1005300000F0AAFD40F2EE2000F0EAFB01221102D9
:100540000348001F00F0A0FD0F2000F0E1FB10BDEC
:100550000408014010B5FFF7DBFFFFF711FFCC20C7
:1005600000F004F8442000F001F810BD70B5044616
:100570001E48006820F0F0001C490860084600682A
:1005800040F00300086001252CE004F0010664102F
:100590009EB100224FF480711448001F00F074FDDA
:1005A000022000F0B5FB012211021048001F00F0EC
:1005B0006BFD3C2000F0ACFB12E000224FF4807198
:1005C0000A48001F00F060FD3C2000F0A1FB012262
:1005D00011020648001F00F057FD022000F098FBB2
:1005E000681CC5B2082DD0DD70BD000004080140B4
:1005F000704772B600BFFEE7F8B50446002600203B
:10060000009000BF94F82400012801D10220F8BD19
:10061000012084F8240000BF2046FFF738FE06467C
:100620002046FFF763FE0646002E69D1A06A20F43B
:10063000885040F00200A062022000F0F3FD34492F
:100640000968B1FBF0F04000009002E00098401E05
:10065000009000980028F9D12068806840F00800D8
:100660002168886000F016FD054616E000F012FDD6
:10067000401B0A2811D92068806800F0080060B18A
:10068000A06A20F0020040F01000A06200BF00202D
:1006900084F8240000BF0120B9E72068806800F0DA
:1006A00008000028E2D12068806840F0040021683A
:1006B000886000F0EFFC054616E000F0EBFC401B04
:1006C0000A2811D92068806800F0040060B1A06A8F
:1006D00020F0020040F01000A06200BF002084F86B
:1006E000240000BF012092E72068806800F0040029
:1006F0000028E2D1A06A20F0020040F00100A062D0
:1007000000BF002084F8240000BF30467FE70000CF
:100710001000002038B5024600230020009000BFE2
:1007200092F82400012801D1022038BD012082F86E
:10073000240000BF4868072812D21068406B0C796B
:10074000641E04EB84051F24AC40A0430D796D1E8C
:1007500005EB85050C68AC4020431468606327E016
:1007600048680D2812D21068006B0C79E41F04EB66
:1007700084051F24AC40A0430D79ED1F05EB8505D2
:100780000C68AC4020431468206311E01068C06A14
:100790000C790D3C04EB84051F24AC40A0430D797B
:1007A0000D3D05EB85050C68AC4020431468E06204
:1007B00008680A2812D31068C0680C780A3C04EB59
:1007C00044050724AC40A0430D780A3D05EB4505E0
:1007D0008C68AC4020431468E0600FE0106800694A
:1007E0000C7804EB44050724AC40A0430D7805EBDE
:1007F00045058C68AC4020431468206108681028C7
:1008000002D00868112827D1174C1068A0421ED1C9
:100810001068806800F40000F0B91068806840F447
:1008200000001468A0600868102815D10F480068FF
:100830000F4CB0FBF4F000EB80004000009002E0B1
:100840000098401E009000980028F9D104E0906ABA
:1008500040F020009062012300BF002082F82400B5
:1008600000BF184661E7000000240140100000208E
:1008700040420F000146886A704701460868C06C14
:10088000704700002DE9F0410446002700250026AE
:10089000A84614B90120BDE8F081A06810B1207D00
:1008A00000B100BFA06A30B90020E06284F82400E3
:1008B000204600F089F82046FFF7E9FC0746A06AC9
:1008C00000F01000002873D1002F71D1A06A20F42D
:1008D000885040F00200A062E16960680843217B13
:1008E00040EA41000643A068B0F5807F02D0A068CE
:1008F000012802D14FF4807000E000200543207DE4
:10090000012811D1207B38B9A069401E4FF4006145
:1009100041EA4030054307E0A06A40F02000A062B1
:10092000E06A40F00100E0622068406820F469401D
:100930002843216848602068806821490840304386
:1009400021688860A068B0F5807F02D0A068012887
:1009500002D14FF4807000E00020B0F5807F03D119
:10096000208A401E4FEA00582068C06A20F47000B8
:1009700040EA08002168C862206880681149084080
:10098000B04208D10020E062A06A20F0020040F0EE
:100990000100A06211E0A06A20F0020040F0100007
:1009A000A062E06A40F00100E062012705E0FFE795
:1009B000A06A40F01000A062012738466BE70000F3
:1009C000FDF7E1FFFE0E1FFF10B586B004460020C4
:1009D000029003900490059014492068884222D127
:1009E00000BF1348806940F40070114988610846CF
:1009F000806900F40070019000BF00BF00BF08468E
:100A0000806940F0040088610846806900F00400B5
:100A1000019000BF00BF402002900320039002A974
:100A2000044800F099F906B010BD00000024014010
:100A30000010024000080140F8B504460D460026AB
:100A400000200090002700F025FB06462068806803
:100A500000F4807050B1A06A40F02000A06200BF96
:100A6000002084F8240000BF0120F8BD2068406801
:100A700000F4807020BB2068C06A00F47000F8B9F0
:100A800017E0681CA8B125B100F004FB801BA84248
:100A90000FD92068006800F0020050B9A06A40F049
:100AA0000400A06200BF002084F8240000BF0320DF
:100AB000DBE72068006800F002000028E1D053E086
:100AC000022000F0AFFB38490968B1FBF0F0216863
:100AD0000969364A114091B92168C96892111140DB
:100AE00069B921680969324A114031B92168C96878
:100AF0009211114009B9142117E0292115E021684C
:100B000009692B4A114021B92168C9689211114025
:100B100041B121680969274A114029B92168C9688A
:100B2000114009B9542100E0FC2100FB01F718E055
:100B3000681C98B125B100F0ADFA801BA8420DD910
:100B40000098B8420AD2A06A40F00400A06200BF38
:100B5000002084F8240000BF032086E70098401C92
:100B600000900098B842E3D36FF01200216808604B
:100B7000A06A40F40070A0622068806800F46020E1
:100B8000B0F5602F0DD1207B58B9A06A20F4807099
:100B9000A062A06A00F4805018B9A06A40F0010079
:100BA000A062002061E70000100000202449922488
:100BB000922449124992240070B50446002500BFD2
:100BC00094F82400012801D1022070BD012084F88E
:100BD000240000BF2046FFF789FB0546002D77D192
:100BE000A06A40F20121884340F48070A0623C4931
:100BF0002068884208D13B48006800F4702008B99A
:100C0000012002E0002000E0012078B1A06A20F479
:100C10008010A0622068406800F4806000B3A06A81
:100C200020F4005040F48050A06219E0A06A40F423
:100C30008010A0622B49091F2068884203D02849F0
:100C40002068884204D12748006800F4806000E0F2
:100C5000002028B1A06A20F4005040F48050A06227
:100C6000A06A00F4805020B1E06A20F00600E06243
:100C700001E00020E06200BF002084F8240000BFF3
:100C8000C01E216808602068806800F46020B0F50C
:100C9000602F16D112492068884208D11148006897
:100CA00000F4702008B9012002E0002000E00120DB
:100CB00038B12068806840F4A000216888600CE0AA
:100CC00006E02068806840F480102168886004E0B5
:100CD00000BF002084F8240000BF284675E700000C
:100CE000002801400424014070B5044600F0D2F908
:100CF00006462546681C10B104480078054400BF2C
:100D000000F0C8F9801BA842FAD370BD0C00002087
:100D100070B5034600224FF0E02675690D4E366827
:100D200003FB06F44FF0E026B16910E04FF0E02637
:100D3000B06988420BD0884202D20E1A324402E0D7
:100D40002E1A0E4432440146A24200D300E0EDE7E1
:100D500000BF70BD000000202DE9F84703460022C7
:100D600094466EE14FF0010808FA02F4D1F80080D1
:100D700008EA0400A0427DD1DFF8DCA2D1F80480AB
:100D8000A8EB0A09D0453AD014DCB8F1030F50D0D3
:100D900009DCB8F1000F31D0B8F1010F1CD0B8F167
:100DA000020F49D120E0B8F1110F18D0B8F1120F9D
:100DB00042D11EE0B9F5881F25D006DCB9F5803F89
:100DC00020D0B9F5801F37D11AE0B9F5001F18D02F
:100DD000B9F5041F30D117E0D1F80CC02DE0D1F8DF
:100DE0000C8008F1040C28E0D1F80C8008F1080C04
:100DF00023E0D1F80C8008F10C0C1EE000BF00BF0E
:100E000000BF00BF00BF00BFD1F80880B8F1000FDD
:100E100002D14FF0040C0BE0D1F80880B8F1010FBB
:100E200003D14FF0080C1C6102E04FF0080C5C612C
:100E300003E04FF0000C00E000BF00BFFF2801D826
:100E4000984601E003F104084646FF2802D84FEA1D
:100E5000820803E0A2F108084FEA88084746D6F85E
:100E600000804FF00F0909FA07F928EA09080CFA7F
:100E700007F900E088E048EA0908C6F80080D1F8E0
:100E8000048008F08058B8F1805F7DD100BFDFF8A2
:100E9000CC81D8F8188048F00108DFF8C091C9F873
:100EA0001880C846D8F8188008F00108CDF80080EE
:100EB00000BF00BF4FEAB9384FEA920958F82950ED
:100EC0004FEA82784FEA18794FF00F0808FA09F8CC
:100ED00025EA0805DFF88881434502D14FF0000874
:100EE00016E0DFF88081434502D14FF001080FE0A2
:100EF000DFF87481434502D14FF0020808E0DFF8C3
:100F00006C81434502D14FF0030801E04FF0040823
:100F10004FEA82794FEA197908FA09F848EA050593
:100F2000DFF84C814FEA920948F82950D1F8048043
:100F300008F48018B8F5801F0AD1DFF83881D8F896
:100F4000008048EA0008DFF82C91C9F8008009E029
:100F5000DFF82081D8F8008028EA0008DFF8149133
:100F6000C9F80080D1F8048008F40018B8F5001F13
:100F700010D1DFF8008108F10408D8F8008048EAB1
:100F80000008DFF8F09000E05AE009F10409C9F820
:100F900000800DE0DFF8DC8008F10408D8F800805C
:100FA00028EA0008DFF8CC9009F10409C9F80080AC
:100FB000D1F8048008F40038B8F5003F0ED1DFF80E
:100FC000B480A8F10408D8F8008048EA0008DFF8E7
:100FD000A490A9F10409C9F800800DE0DFF894801D
:100FE000A8F10408D8F8008028EA0008DFF8849007
:100FF000A9F10409C9F80080D1F8048008F4803808
:10100000B8F5803F0ED1DFF86C80A8F10808D8F859
:10101000008048EA0008DFF85C90A9F10809C9F8E7
:1010200000800DE0DFF84C80A8F10808D8F80080B7
:1010300028EA0008DFF83C90A9F10809C9F8008007
:10104000521CD1F8008028FA02F8B8F1000F7FF4A2
:1010500089AEBDE8F88700000000111000100240C2
:1010600000080140000C0140001001400014014044
:101070000800014008040140024693680B400BB190
:10108000012000E0002070470AB1016101E00B047B
:1010900003617047014800687047000004000020A9
:1010A000034800680349097808440149086070470B
:1010B000040000200C00002010B50848006840F033
:1010C000100006490860032000F098F80F2000F097
:1010D00007F800F02BF8002010BD000000200240AF
:1010E00070B504460E4800784FF47A71B1FBF0F009
:1010F0000C490968B1FBF0F5284600F0FFFC08B187
:10110000012070BD102C07D200222146501E00F095
:1011100037F80548046001E00120F2E70020F0E71D
:101120000C000020100000200800002008B500BFBF
:101130001148806940F001000F49886108468069C4
:1011400000F00100009000BF00BF00BF0846C0696A
:1011500040F08050C8610846C06900F0805000909F
:1011600000BF00BF00BF0549486820F0E06040F0C4
:101170000070486000BF08BD001002400000014040
:101180002DE9F05F80460D461646002700F0D6FE9A
:10119000074639462A46334601F00700C0F1070AE0
:1011A000BAF1040F02D94FF0040A01E0C0F1070AB6
:1011B000D14600F1040ABAF1070F02D24FF0000A3B
:1011C00001E0A0F1030AD4464FF0010A0AFA09FA35
:1011D000AAF1010A0AEA020A0AFA0CFA4FF0010B14
:1011E0000BFA0CFBABF1010B0BEA030B4AEA0B0405
:1011F0002146404600F0AAFEBDE8F09F00BF00F087
:101200000702064B19684FF6FF031940044B0B43C6
:1012100043EA0221014B196000BF70470CED00E06A
:101220000000FA052DE9F04706464FF000080025BA
:1012300000270024A146012E31D0022E56D0102EB8
:101240005FD132484468006800F0807008B33048CD
:10125000C4F38341475C04F4803078B12B48406884
:10126000C0F340402B4911F8008004F4803040B1B5
:101270002948B0FBF8F000FB07F502E0274807FB20
:1012800000F52248406800F48000B0F5800F01D1DD
:10129000A94603E068000321B0FBF1F932E01B48E6
:1012A000046A04F44070B0F5807F05D104F00200B8
:1012B00010B14FF4004918E004F44070B0F5007F1D
:1012C00007D11248406A00F0020010B149F64049C7
:1012D0000BE004F44070B0F5407F06D10B48006885
:1012E00000F4003008B14FF224490BE000F08CF913
:1012F00006494968C1F38131491C4900B0FBF1F945
:1013000000E000BF00BF4846BDE8F0870010024083
:10131000722200088222000800127A0000093D00B3
:10132000F8B5044600260025207800F001000028CA
:101330006BD000274348C06900F0805070B900BFEF
:101340004048C06940F080503E49C8610846C069C5
:1013500000F08050009000BF00BF01273A480068AD
:1013600000F48070B0B93848006840F480703649A5
:101370000860FFF78FFE064606E0FFF78BFE801B36
:10138000642801D90320F8BD2F48006800F480705C
:101390000028F2D02B48006A00F440752DB3A088D5
:1013A00000F44070A84220D02648006A20F440751E
:1013B000012026490860002008602248056205F0E7
:1013C000010090B1FFF766FE064608E0FFF762FEF7
:1013D000801B41F28831884201D90320D3E71948A4
:1013E000006A00F002000028F0D01648006A20F4DD
:1013F00040706168084313490862012F04D1084610
:10140000C06920F08050C86100BF207800F0020061
:10141000022807D10B48406820F44040A1680843E7
:1014200008494860207800F01000102807D10548CE
:10143000406820F48000E1680843024948600020C9
:10144000A1E700000010024000700040400442424A
:1014500070B504460D460CB9012070BD5A480068AD
:1014600000F00700A8420ED25748006820F007009D
:101470002843554908600846006800F00700A84264
:1014800001D00120E9E7207800F0020002281DD1F8
:10149000207800F00400042805D14C48406840F44E
:1014A000E0604A494860207800F00800082805D12B
:1014B0004648406840F460504449486043484068AA
:1014C00020F0F000A168084340494860207800F00F
:1014D000010078B36068012806D13C48006800F438
:1014E000003090B90120B8E76068022806D137487B
:1014F000006800F0007040B90120AEE73348006892
:1015000000F0020008B90120A7E73048406820F049
:101510000300616808432D494860FFF7BBFD06469C
:1015200009E0FFF7B7FD801B41F28831884202D9FC
:10153000032092E707E02548406800F00C0061684E
:10154000B0EB810FEDD12048006800F00700A84201
:101550000ED91D48006820F0070028431A4908608A
:101560000846006800F00700A84201D0012074E797
:10157000207800F00400042807D11448406820F4C3
:10158000E060E168084311494860207800F00800F5
:10159000082808D10D48406820F46050216940EACD
:1015A000C1000A49486000F03FF808494968C1F3A2
:1015B0000311074A515CC8400649086006480068A4
:1015C000FFF78EFD002048E7002002400010024097
:1015D0008422000810000020080000200148006854
:1015E000704700001000002000B5FFF7F7FF044926
:1015F0004968C1F30221034A515CC84000BD0000A4
:10160000001002409422000800B5FFF7E7FF0449EC
:101610004968C1F3C221034A515CC84000BD0000C3
:10162000001002409422000870B50021002200241E
:1016300000230020134D696801F00C05F5B1042D5D
:1016400002D0082D19D101E00F4819E00F4DC1F368
:101650008346AB5D01F4803555B10A4D6D68C5F325
:1016600040450B4E725D084D5D43B5FBF2F402E060
:10167000084D03FB05F4204602E000BF024800BF0E
:1016800000BF70BD0010024000127A006022000806
:101690007022000800093D00F8B504460CB901208D
:1016A000F8BD207800F00100002878D0F8484068A4
:1016B00000F00C0004280CD0F548406800F00C0045
:1016C000082811D1F248406800F48030B0F5803F1E
:1016D0000AD1EF48006800F4003000285FD060684D
:1016E00000285CD10120DBE700BF6068B0F5803FD7
:1016F00006D1E748006840F48030E549086028E0FA
:10170000606858B9E248006820F48030E049086019
:101710000846006820F4802008601AE06068B0F590
:10172000A02F0BD1DA48006840F48020D849086027
:101730000846006840F4803008600AE0D448006839
:1017400020F48030D24908600846006820F48020E8
:10175000086000BF606888B1FFF79CFC054606E0A2
:10176000FFF798FC401B642801D9032098E7C8487C
:10177000006800F400300028F2D010E0FFF78AFC87
:10178000054606E0FFF786FC401B642801D90320CC
:1017900086E7BF48006800F400300028F2D12078C6
:1017A00000F00200022857D1B948406800F00C0050
:1017B00050B1B748406800F00C00082818D1B44870
:1017C000406800F4803098B9B148006800F0020029
:1017D00020B12069012801D0012061E7AC480068F0
:1017E00020F0F800616940EAC100A949086033E0CF
:1017F0002069E8B10120A7490860FFF74BFC0546C6
:1018000006E0FFF747FC401B022801D9032047E709
:101810009F48006800F002000028F2D09C48006851
:1018200020F0F800616940EAC1009949086013E0BE
:10183000002098490860FFF72DFC054606E0FFF7F9
:1018400029FC401B022801D9032029E790480068A1
:1018500000F002000028F2D1207800F008000828EB
:101860002DD1A069B8B101208B490860FFF712FCA7
:10187000054606E0FFF70EFC401B022801D90320B5
:101880000EE78348406A00F002000028F2D00120F1
:1018900000F082FA13E000207F490860FFF7FAFBAE
:1018A000054606E0FFF7F6FB401B022801D903209E
:1018B000F6E67748406A00F002000028F2D120786E
:1018C00000F00400042873D100277148C06900F0BB
:1018D000805070B900BF6E48C06940F080506C49BC
:1018E000C8610846C06900F08050009000BF00BF8A
:1018F00001276A48006800F48070B0B96748006842
:1019000040F4807065490860FFF7C4FB054606E0B7
:10191000FFF7C0FB401B642801D90320C0E65F48E5
:10192000006800F480700028F2D000BFE068012851
:1019300006D15748006A40F001005549086227E087
:10194000E06858B95248006A20F001005049086226
:101950000846006A20F00400086219E0E0680528E3
:101960000BD14B48006A40F0040049490862084620
:10197000006A40F0010008620AE04548006A20F071
:101980000100434908620846006A20F0040008622A
:1019900000BFE068A0B1FFF77DFB054609E0FFF757
:1019A00079FB401B41F28831884202D9032077E657
:1019B00022E03748006A00F002000028EFD012E071
:1019C000FFF768FB054608E0FFF764FB401B41F2A8
:1019D0008831884201D9032062E62D48006A00F070
:1019E00002000028F0D1012F05D12948C06920F05C
:1019F00080502749C86100BFE069C8B324484068E7
:101A000000F00C00082860D0E069022848D10020CE
:101A100020490866FFF73EFB054606E0FFF73AFB64
:101A2000401B022801D903203AE61948006800F05B
:101A300000700028F2D1206AB0F5803F07D1144829
:101A4000406820F40030A168084311494860D4E997
:101A5000080108430E49496821F4741108430C49F0
:101A6000486001200B490866FFF714FB054607E0B4
:101A70003DE0FFF70FFB401B022801D903200FE6D2
:101A80000348006800F000700028F2D02FE000004A
:101A900000100240000042428004424200700040B8
:101AA000002014490866FFF7F5FA054606E0FFF73F
:101AB000F1FA401B022801D90320F1E50E48006825
:101AC00000F000700028F2D111E0E069012800D197
:101AD000E6E50948466806F48031206A814204D16F
:101AE00006F47011606A814201D00120D8E500201F
:101AF000D6E50000000042420010024070B50446E6
:101B00002546681EB0F1807F01D301200FE0681EDA
:101B10004FF0E02148610F214FF0FF3000F016FA3E
:101B200000204FF0E021886107200861002070BD8F
:101B300010B504460CB9012010BDA06900B100E049
:101B400000BF94F8410028B9002084F840002046E6
:101B500000F02AF8242084F841002068C06820F4AE
:101B600000502168C860204600F068F920680069CC
:101B700020F49040216808612068406920F02A0024
:101B8000216848612068C06840F400502168C8603E
:101B900000206064202084F8410084F84200002086
:101BA000606300BFC8E7000010B586B0044600209F
:101BB00002900390049005901A49206888422ED123
:101BC00000BF1948806940F4804017498861084681
:101BD000806900F48040019000BF00BF00BF08464C
:101BE000806940F0040088610846806900F00400C4
:101BF000019000BF00BF481502900220039003200F
:101C0000059002A90948FFF7A7F84FF480600290F9
:101C100000200390049002A90448FFF79DF806B045
:101C200010BD0000003801400010024000080140D3
:101C300000BFFEE70EB5002000900190029013480F
:101C400013490860002112488160012101730021BD
:101C500001754FF46021C16100200D4948600121E8
:101C60000B480161FEF70EFE08B1FEF7C2FC06202C
:101C70000090012001900420029069460448FEF77C
:101C800049FD08B1FEF7B5FC0EBD0000002401407F
:101C90001400002000B585B0002001900290039050
:101CA000049000BF2848806940F0040026498861FC
:101CB0000846806900F00400009000BF00BF00BF2C
:101CC0000846806940F0080088610846806900F095
:101CD0000800009000BF00BF002280211B48FFF7D2
:101CE000D3F9002243F201011948FFF7CDF9202072
:101CF00001900320029001A91448FFF72DF88020DD
:101D0000019001200290002003900220049001A97C
:101D10000E48FFF721F843F20100019001200290E4
:101D2000002003900220049001A90948FFF714F84D
:101D30004FF48070019000200290039001A90348A5
:101D4000FFF70AF805B000BD00100240000801408E
:101D5000000C014010B50B480B4908604FF4E1300E
:101D60004860002108488160C16001610C21416127
:101D700000218161C161FFF7DBFE08B1FEF739FC8C
:101D800010BD0000003801404400002000BFFEE705
:101D900000BFFEE77047000008B508490968C90898
:101DA0004FF47A72B1FBF2F14143009100BF00BFE2
:101DB00000994A1E00920029F9D108BD10000020A8
:101DC000704710B5FFF76CF910BD00B593B028212E
:101DD00009A8FEF7F9F9142104A8FEF7F5F9002087
:101DE00000900190029003900220099001200D9034
:101DF00010200E900020109009A8FFF74DFC08B1AC
:101E0000FEF7F7FB0F200490002005900690079046
:101E10000890002104A8FFF71BFB08B1FEF7E9FBBF
:101E200002200090002002906846FFF779FA08B17E
:101E3000FEF7DFFB13B000BD7047000070B504462D
:101E40002168096921F44051E26811432268116157
:101E50002269A1681143626941EA02052168C968E3
:101E600041F20C62914329432268D160216849699B
:101E700021F44071A2691143226851612D4A216801
:101E8000914202D1FFF7C0FB01E0FFF7ADFB00EB91
:101E9000C00101EB001162689200B1FBF2F100EBAE
:101EA000C00202EB001263689B00B2FBF3F26423F2
:101EB000B2FBF3F202EBC20303EB0212A1EB8201CD
:101EC000322202EB01116422B1FBF2F101F0F001C8
:101ED00000EBC00202EB001263689B00B2FBF3F25E
:101EE0006423B2FBF3F201EB021200EBC00101EB41
:101EF000001163689B00B1FBF3F100EBC00303EB3F
:101F000000136668B600B3FBF6F36426B3FBF6F382
:101F100003EBC30606EB0313A1EB8301322303EBB0
:101F200001116423B1FBF3F101F00F0111442268A8
:101F3000916070BD0038014000BFFEE702480068B4
:101F4000C0F30220704700000CED00E010B500283F
:101F500004DB0A07130E054A135406E00A07140EA1
:101F6000034A00F00F031B1FD45410BD00E400E02F
:101F700018ED00E01CB5FFF79FF8FFF726FFFFF70D
:101F800089FEFFF7E7FEFFF755FE1248FEF734FB28
:101F9000FEF7BEFA00240F48FEF70EFE32210D4870
:101FA000FEF74AFD15E0FEF723FA044600BF094894
:101FB000FEF760FC00F4007038B10648FEF75DFCE7
:101FC00080B20190BDF8040000904FF47A70FEF7E3
:101FD0008BFEE8E7140000204FEA41034FEA535319
:101FE000A3F58063D3F11E03C8BFD3F1210C0CDD30
:101FF0004FF0004242EAC12242EA505232FA03FC58
:102000008CEAE17CACEBE1707047102BC4BF002080
:10201000704703F5787CBCF1FF3F04D06FF00042BD
:1020200082EA2100704770B500F0C6F8499224801A
:1020300000207047F2E710F0004248BF4042B0FA7B
:1020400080F310FA03F10AD0C3F11D0303F5806396
:102050004FEA415002EB035202EBD12170474FF09F
:1020600000007047DFF848C170B51CEA111E1EBFA2
:102070001CEA13159EEA0C0F95EA0C0F00F06F8016
:1020800081EA030423EA4C134EEAD47E21EA4C1180
:1020900041F4801143F48013AE44A1FB024CA0FB39
:1020A0000365AEF17F7E361955EB0C05A1FB034CA1
:1020B0004CF10003A0FB021C16EB0C06654153F12A
:1020C0000003094218BF46F0010613F4007F0BD14C
:1020D0004FEA03314FEA0530340341EA155140EA33
:1020E00016506FF003020AE04FEAC3214FEAC52001
:1020F000F40241EA555140EA56506FF0020202EBF9
:102100002E4201EB025585EACE710AD05FEA440CFB
:1021100018BF24F0004450F1000041F1000120EA12
:10212000D47040F2FE7C624500D270BDA84214BF5C
:102130004FF080444FF04044002E08BF0024BEF111
:10214000806FA8BFA1F1C041BDE8704080F28280DD
:102150004FF0000001F1C04101F0004170479EEADC
:102160000C0F0CEA131518BF95EA0C0F06D04FF0B0
:10217000000081EA030E0EF0004170BD00F01CF873
:102180008900013E00F007B800F009B84FEA430C9F
:102190005FEA5C5C08D081EA030100F05BB84FEABB
:1021A000410C5FEA5C5CF6D14FF0000001497047DA
:1021B0000000FF070000F87F0EF1020E2EF0030E64
:1021C0005EF8046B364205D4012A43EB030515F58E
:1021D000001F12D8012841EB010C1CF5001F0CD880
:1021E0000ED14FEAD17C15F5001F0CEB4C0C0CF115
:1021F000020C08BF4CEBD37C04E04FF0080C01E06C
:102200004FEAD37C0CEB4C0526FA05F606F00706E0
:10221000B6F1040C06D20EEB860CBDE870404CF013
:10222000010C6047DFE80CF0090B02024FF000419F
:102230004FF00000A1F5002170BD1946104601289D
:1022400051EB010418BFD4F5001484BF002001F045
:10225000004170BD0808A0F500114FEA3101704738
:1022600002030405060708090A0B0C0D0E0F1010D7
:10227000010202030405060708090A0B0C0D0E0FE4
:102280001010010200000000000000000102030421
:10229000060708090000000001020304BC22000830
:1022A000000000201400000028010008D0220008CF
:1022B00014000020DC0600004401000800000000BB
:1022C00000000000100000000100000000127A0071
:04000005080000ED02
:00000001FF
